{
  "_format": "hh-sol-artifact-1",
  "contractName": "NFTMarketplace",
  "sourceName": "contracts/NFTMarketplace.sol",
  "abi": [
    {
      "inputs": [],
      "stateMutability": "nonpayable",
      "type": "constructor"
    },
    {
      "anonymous": false,
      "inputs": [
        {
          "indexed": true,
          "internalType": "address",
          "name": "owner",
          "type": "address"
        },
        {
          "indexed": true,
          "internalType": "address",
          "name": "approved",
          "type": "address"
        },
        {
          "indexed": true,
          "internalType": "uint256",
          "name": "tokenId",
          "type": "uint256"
        }
      ],
      "name": "Approval",
      "type": "event"
    },
    {
      "anonymous": false,
      "inputs": [
        {
          "indexed": true,
          "internalType": "address",
          "name": "owner",
          "type": "address"
        },
        {
          "indexed": true,
          "internalType": "address",
          "name": "operator",
          "type": "address"
        },
        {
          "indexed": false,
          "internalType": "bool",
          "name": "approved",
          "type": "bool"
        }
      ],
      "name": "ApprovalForAll",
      "type": "event"
    },
    {
      "anonymous": false,
      "inputs": [
        {
          "indexed": true,
          "internalType": "uint256",
          "name": "tokenId",
          "type": "uint256"
        },
        {
          "indexed": false,
          "internalType": "address",
          "name": "seller",
          "type": "address"
        },
        {
          "indexed": false,
          "internalType": "address",
          "name": "owner",
          "type": "address"
        },
        {
          "indexed": false,
          "internalType": "uint256",
          "name": "price",
          "type": "uint256"
        },
        {
          "indexed": false,
          "internalType": "bool",
          "name": "sold",
          "type": "bool"
        }
      ],
      "name": "MarketItemCreated",
      "type": "event"
    },
    {
      "anonymous": false,
      "inputs": [
        {
          "indexed": true,
          "internalType": "address",
          "name": "from",
          "type": "address"
        },
        {
          "indexed": true,
          "internalType": "address",
          "name": "to",
          "type": "address"
        },
        {
          "indexed": true,
          "internalType": "uint256",
          "name": "tokenId",
          "type": "uint256"
        }
      ],
      "name": "Transfer",
      "type": "event"
    },
    {
      "inputs": [
        {
          "internalType": "address",
          "name": "to",
          "type": "address"
        },
        {
          "internalType": "uint256",
          "name": "tokenId",
          "type": "uint256"
        }
      ],
      "name": "approve",
      "outputs": [],
      "stateMutability": "nonpayable",
      "type": "function"
    },
    {
      "inputs": [
        {
          "internalType": "address",
          "name": "owner",
          "type": "address"
        }
      ],
      "name": "balanceOf",
      "outputs": [
        {
          "internalType": "uint256",
          "name": "",
          "type": "uint256"
        }
      ],
      "stateMutability": "view",
      "type": "function"
    },
    {
      "inputs": [
        {
          "internalType": "uint256",
          "name": "tokenId",
          "type": "uint256"
        }
      ],
      "name": "createMarketSale",
      "outputs": [],
      "stateMutability": "payable",
      "type": "function"
    },
    {
      "inputs": [
        {
          "internalType": "string",
          "name": "tokenURI",
          "type": "string"
        },
        {
          "internalType": "uint256",
          "name": "price",
          "type": "uint256"
        },
        {
          "internalType": "address",
          "name": "_userAddress",
          "type": "address"
        }
      ],
      "name": "createToken",
      "outputs": [
        {
          "internalType": "uint256",
          "name": "",
          "type": "uint256"
        }
      ],
      "stateMutability": "payable",
      "type": "function"
    },
    {
      "inputs": [],
      "name": "fetchItemsListed",
      "outputs": [
        {
          "components": [
            {
              "internalType": "uint256",
              "name": "tokenId",
              "type": "uint256"
            },
            {
              "internalType": "address payable",
              "name": "seller",
              "type": "address"
            },
            {
              "internalType": "address payable",
              "name": "owner",
              "type": "address"
            },
            {
              "internalType": "uint256",
              "name": "price",
              "type": "uint256"
            },
            {
              "internalType": "bool",
              "name": "sold",
              "type": "bool"
            }
          ],
          "internalType": "struct NFTMarketplace.MarketItem[]",
          "name": "",
          "type": "tuple[]"
        }
      ],
      "stateMutability": "view",
      "type": "function"
    },
    {
      "inputs": [],
      "name": "fetchMarketItems",
      "outputs": [
        {
          "components": [
            {
              "internalType": "uint256",
              "name": "tokenId",
              "type": "uint256"
            },
            {
              "internalType": "address payable",
              "name": "seller",
              "type": "address"
            },
            {
              "internalType": "address payable",
              "name": "owner",
              "type": "address"
            },
            {
              "internalType": "uint256",
              "name": "price",
              "type": "uint256"
            },
            {
              "internalType": "bool",
              "name": "sold",
              "type": "bool"
            }
          ],
          "internalType": "struct NFTMarketplace.MarketItem[]",
          "name": "",
          "type": "tuple[]"
        }
      ],
      "stateMutability": "view",
      "type": "function"
    },
    {
      "inputs": [],
      "name": "fetchMyNFTs",
      "outputs": [
        {
          "components": [
            {
              "internalType": "uint256",
              "name": "tokenId",
              "type": "uint256"
            },
            {
              "internalType": "address payable",
              "name": "seller",
              "type": "address"
            },
            {
              "internalType": "address payable",
              "name": "owner",
              "type": "address"
            },
            {
              "internalType": "uint256",
              "name": "price",
              "type": "uint256"
            },
            {
              "internalType": "bool",
              "name": "sold",
              "type": "bool"
            }
          ],
          "internalType": "struct NFTMarketplace.MarketItem[]",
          "name": "",
          "type": "tuple[]"
        }
      ],
      "stateMutability": "view",
      "type": "function"
    },
    {
      "inputs": [
        {
          "internalType": "uint256",
          "name": "tokenId",
          "type": "uint256"
        }
      ],
      "name": "getApproved",
      "outputs": [
        {
          "internalType": "address",
          "name": "",
          "type": "address"
        }
      ],
      "stateMutability": "view",
      "type": "function"
    },
    {
      "inputs": [],
      "name": "getListingPrice",
      "outputs": [
        {
          "internalType": "uint256",
          "name": "",
          "type": "uint256"
        }
      ],
      "stateMutability": "view",
      "type": "function"
    },
    {
      "inputs": [
        {
          "internalType": "address",
          "name": "owner",
          "type": "address"
        },
        {
          "internalType": "address",
          "name": "operator",
          "type": "address"
        }
      ],
      "name": "isApprovedForAll",
      "outputs": [
        {
          "internalType": "bool",
          "name": "",
          "type": "bool"
        }
      ],
      "stateMutability": "view",
      "type": "function"
    },
    {
      "inputs": [],
      "name": "name",
      "outputs": [
        {
          "internalType": "string",
          "name": "",
          "type": "string"
        }
      ],
      "stateMutability": "view",
      "type": "function"
    },
    {
      "inputs": [
        {
          "internalType": "uint256",
          "name": "tokenId",
          "type": "uint256"
        }
      ],
      "name": "ownerOf",
      "outputs": [
        {
          "internalType": "address",
          "name": "",
          "type": "address"
        }
      ],
      "stateMutability": "view",
      "type": "function"
    },
    {
      "inputs": [
        {
          "internalType": "uint256",
          "name": "tokenId",
          "type": "uint256"
        },
        {
          "internalType": "uint256",
          "name": "price",
          "type": "uint256"
        }
      ],
      "name": "resellToken",
      "outputs": [],
      "stateMutability": "payable",
      "type": "function"
    },
    {
      "inputs": [
        {
          "internalType": "address",
          "name": "from",
          "type": "address"
        },
        {
          "internalType": "address",
          "name": "to",
          "type": "address"
        },
        {
          "internalType": "uint256",
          "name": "tokenId",
          "type": "uint256"
        }
      ],
      "name": "safeTransferFrom",
      "outputs": [],
      "stateMutability": "nonpayable",
      "type": "function"
    },
    {
      "inputs": [
        {
          "internalType": "address",
          "name": "from",
          "type": "address"
        },
        {
          "internalType": "address",
          "name": "to",
          "type": "address"
        },
        {
          "internalType": "uint256",
          "name": "tokenId",
          "type": "uint256"
        },
        {
          "internalType": "bytes",
          "name": "data",
          "type": "bytes"
        }
      ],
      "name": "safeTransferFrom",
      "outputs": [],
      "stateMutability": "nonpayable",
      "type": "function"
    },
    {
      "inputs": [
        {
          "internalType": "address",
          "name": "_address",
          "type": "address"
        }
      ],
      "name": "setAdmin",
      "outputs": [
        {
          "internalType": "address",
          "name": "",
          "type": "address"
        }
      ],
      "stateMutability": "nonpayable",
      "type": "function"
    },
    {
      "inputs": [
        {
          "internalType": "address",
          "name": "operator",
          "type": "address"
        },
        {
          "internalType": "bool",
          "name": "approved",
          "type": "bool"
        }
      ],
      "name": "setApprovalForAll",
      "outputs": [],
      "stateMutability": "nonpayable",
      "type": "function"
    },
    {
      "inputs": [
        {
          "internalType": "bytes4",
          "name": "interfaceId",
          "type": "bytes4"
        }
      ],
      "name": "supportsInterface",
      "outputs": [
        {
          "internalType": "bool",
          "name": "",
          "type": "bool"
        }
      ],
      "stateMutability": "view",
      "type": "function"
    },
    {
      "inputs": [],
      "name": "symbol",
      "outputs": [
        {
          "internalType": "string",
          "name": "",
          "type": "string"
        }
      ],
      "stateMutability": "view",
      "type": "function"
    },
    {
      "inputs": [
        {
          "internalType": "uint256",
          "name": "tokenId",
          "type": "uint256"
        }
      ],
      "name": "tokenURI",
      "outputs": [
        {
          "internalType": "string",
          "name": "",
          "type": "string"
        }
      ],
      "stateMutability": "view",
      "type": "function"
    },
    {
      "inputs": [
        {
          "internalType": "address",
          "name": "from",
          "type": "address"
        },
        {
          "internalType": "address",
          "name": "to",
          "type": "address"
        },
        {
          "internalType": "uint256",
          "name": "tokenId",
          "type": "uint256"
        }
      ],
      "name": "transferFrom",
      "outputs": [],
      "stateMutability": "nonpayable",
      "type": "function"
    },
    {
      "inputs": [
        {
          "internalType": "uint256",
          "name": "_listingPrice",
          "type": "uint256"
        }
      ],
      "name": "updateListingPrice",
      "outputs": [],
      "stateMutability": "payable",
      "type": "function"
    }
  ],
  "bytecode": "0x6080604052655af3107a40006009553480156200001b57600080fd5b506040518060400160405280601281526020017f496e67726573734465666920546f6b656e7300000000000000000000000000008152506040518060400160405280600381526020017f49444600000000000000000000000000000000000000000000000000000000008152508160009081620000999190620003b0565b508060019081620000ab9190620003b0565b50505033600b60006101000a81548173ffffffffffffffffffffffffffffffffffffffff021916908373ffffffffffffffffffffffffffffffffffffffff16021790555033600a60006101000a81548173ffffffffffffffffffffffffffffffffffffffff021916908373ffffffffffffffffffffffffffffffffffffffff16021790555062000497565b600081519050919050565b7f4e487b7100000000000000000000000000000000000000000000000000000000600052604160045260246000fd5b7f4e487b7100000000000000000000000000000000000000000000000000000000600052602260045260246000fd5b60006002820490506001821680620001b857607f821691505b602082108103620001ce57620001cd62000170565b5b50919050565b60008190508160005260206000209050919050565b60006020601f8301049050919050565b600082821b905092915050565b600060088302620002387fffffffffffffffffffffffffffffffffffffffffffffffffffffffffffffffff82620001f9565b620002448683620001f9565b95508019841693508086168417925050509392505050565b6000819050919050565b6000819050919050565b6000620002916200028b62000285846200025c565b62000266565b6200025c565b9050919050565b6000819050919050565b620002ad8362000270565b620002c5620002bc8262000298565b84845462000206565b825550505050565b600090565b620002dc620002cd565b620002e9818484620002a2565b505050565b5b81811015620003115762000305600082620002d2565b600181019050620002ef565b5050565b601f82111562000360576200032a81620001d4565b6200033584620001e9565b8101602085101562000345578190505b6200035d6200035485620001e9565b830182620002ee565b50505b505050565b600082821c905092915050565b6000620003856000198460080262000365565b1980831691505092915050565b6000620003a0838362000372565b9150826002028217905092915050565b620003bb8262000136565b67ffffffffffffffff811115620003d757620003d662000141565b5b620003e382546200019f565b620003f082828562000315565b600060209050601f83116001811462000428576000841562000413578287015190505b6200041f858262000392565b8655506200048f565b601f1984166200043886620001d4565b60005b8281101562000462578489015182556001820191506020850194506020810190506200043b565b868310156200048257848901516200047e601f89168262000372565b8355505b6001600288020188555050505b505050505050565b61465880620004a76000396000f3fe6080604052600436106101355760003560e01c80636352211e116100ab578063ae677aa31161006f578063ae677aa314610441578063b88d4fde1461045d578063be9af53614610486578063c87b56dd146104a2578063e219fc75146104df578063e985e9c5146104fb57610135565b80636352211e14610336578063704b6c021461037357806370a08231146103b057806395d89b41146103ed578063a22cb4651461041857610135565b806312e85585116100fd57806312e85585146102335780631542bb951461025e578063202e37401461028e57806323b872dd146102b957806342842e0e146102e257806345f8fa801461030b57610135565b806301ffc9a71461013a57806306fdde0314610177578063081812fc146101a2578063095ea7b3146101df5780630f08efe014610208575b600080fd5b34801561014657600080fd5b50610161600480360381019061015c9190612e04565b610538565b60405161016e9190612e4c565b60405180910390f35b34801561018357600080fd5b5061018c61061a565b6040516101999190612ef7565b60405180910390f35b3480156101ae57600080fd5b506101c960048036038101906101c49190612f4f565b6106ac565b6040516101d69190612fbd565b60405180910390f35b3480156101eb57600080fd5b5061020660048036038101906102019190613004565b6106f2565b005b34801561021457600080fd5b5061021d610809565b60405161022a919061319a565b60405180910390f35b34801561023f57600080fd5b50610248610a71565b60405161025591906131cb565b60405180910390f35b6102786004803603810190610273919061331b565b610a7b565b60405161028591906131cb565b60405180910390f35b34801561029a57600080fd5b506102a3610b4e565b6040516102b0919061319a565b60405180910390f35b3480156102c557600080fd5b506102e060048036038101906102db919061338a565b610e3a565b005b3480156102ee57600080fd5b506103096004803603810190610304919061338a565b610e9a565b005b34801561031757600080fd5b50610320610eba565b60405161032d919061319a565b60405180910390f35b34801561034257600080fd5b5061035d60048036038101906103589190612f4f565b6111a6565b60405161036a9190612fbd565b60405180910390f35b34801561037f57600080fd5b5061039a600480360381019061039591906133dd565b61122c565b6040516103a79190612fbd565b60405180910390f35b3480156103bc57600080fd5b506103d760048036038101906103d291906133dd565b611329565b6040516103e491906131cb565b60405180910390f35b3480156103f957600080fd5b506104026113e0565b60405161040f9190612ef7565b60405180910390f35b34801561042457600080fd5b5061043f600480360381019061043a9190613436565b611472565b005b61045b60048036038101906104569190612f4f565b611488565b005b34801561046957600080fd5b50610484600480360381019061047f9190613517565b6115b2565b005b6104a0600480360381019061049b9190612f4f565b611614565b005b3480156104ae57600080fd5b506104c960048036038101906104c49190612f4f565b6118f3565b6040516104d69190612ef7565b60405180910390f35b6104f960048036038101906104f4919061359a565b611a05565b005b34801561050757600080fd5b50610522600480360381019061051d91906135da565b611bfa565b60405161052f9190612e4c565b60405180910390f35b60007f80ac58cd000000000000000000000000000000000000000000000000000000007bffffffffffffffffffffffffffffffffffffffffffffffffffffffff1916827bffffffffffffffffffffffffffffffffffffffffffffffffffffffff1916148061060357507f5b5e139f000000000000000000000000000000000000000000000000000000007bffffffffffffffffffffffffffffffffffffffffffffffffffffffff1916827bffffffffffffffffffffffffffffffffffffffffffffffffffffffff1916145b80610613575061061282611c8e565b5b9050919050565b60606000805461062990613649565b80601f016020809104026020016040519081016040528092919081815260200182805461065590613649565b80156106a25780601f10610677576101008083540402835291602001916106a2565b820191906000526020600020905b81548152906001019060200180831161068557829003601f168201915b5050505050905090565b60006106b782611cf8565b6004600083815260200190815260200160002060009054906101000a900473ffffffffffffffffffffffffffffffffffffffff169050919050565b60006106fd826111a6565b90508073ffffffffffffffffffffffffffffffffffffffff168373ffffffffffffffffffffffffffffffffffffffff160361076d576040517f08c379a0000000000000000000000000000000000000000000000000000000008152600401610764906136ec565b60405180910390fd5b8073ffffffffffffffffffffffffffffffffffffffff1661078c611d43565b73ffffffffffffffffffffffffffffffffffffffff1614806107bb57506107ba816107b5611d43565b611bfa565b5b6107fa576040517f08c379a00000000000000000000000000000000000000000000000000000000081526004016107f19061377e565b60405180910390fd5b6108048383611d4b565b505050565b606060006108176007611e04565b905060006108256008611e04565b61082f6007611e04565b61083991906137cd565b90506000808267ffffffffffffffff811115610858576108576131f0565b5b60405190808252806020026020018201604052801561089157816020015b61087e612d3b565b8152602001906001900390816108765790505b50905060005b84811015610a66573073ffffffffffffffffffffffffffffffffffffffff16600c60006001846108c79190613801565b815260200190815260200160002060020160009054906101000a900473ffffffffffffffffffffffffffffffffffffffff1673ffffffffffffffffffffffffffffffffffffffff1603610a535760006001826109239190613801565b90506000600c60008381526020019081526020016000209050806040518060a0016040529081600082015481526020016001820160009054906101000a900473ffffffffffffffffffffffffffffffffffffffff1673ffffffffffffffffffffffffffffffffffffffff1673ffffffffffffffffffffffffffffffffffffffff1681526020016002820160009054906101000a900473ffffffffffffffffffffffffffffffffffffffff1673ffffffffffffffffffffffffffffffffffffffff1673ffffffffffffffffffffffffffffffffffffffff168152602001600382015481526020016004820160009054906101000a900460ff161515151581525050848681518110610a3657610a35613835565b5b6020026020010181905250600185610a4e9190613801565b945050505b8080610a5e90613864565b915050610897565b508094505050505090565b6000600954905090565b6000600b60009054906101000a900473ffffffffffffffffffffffffffffffffffffffff1673ffffffffffffffffffffffffffffffffffffffff163373ffffffffffffffffffffffffffffffffffffffff1614610b0d576040517f08c379a0000000000000000000000000000000000000000000000000000000008152600401610b049061391e565b60405180910390fd5b610b176007611e12565b6000610b236007611e04565b9050610b2f8382611e28565b610b398186612045565b610b4381856120b2565b809150509392505050565b60606000610b5c6007611e04565b905060008060005b83811015610c04573373ffffffffffffffffffffffffffffffffffffffff16600c6000600184610b949190613801565b815260200190815260200160002060020160009054906101000a900473ffffffffffffffffffffffffffffffffffffffff1673ffffffffffffffffffffffffffffffffffffffff1603610bf157600183610bee9190613801565b92505b8080610bfc90613864565b915050610b64565b5060008267ffffffffffffffff811115610c2157610c206131f0565b5b604051908082528060200260200182016040528015610c5a57816020015b610c47612d3b565b815260200190600190039081610c3f5790505b50905060005b84811015610e2f573373ffffffffffffffffffffffffffffffffffffffff16600c6000600184610c909190613801565b815260200190815260200160002060020160009054906101000a900473ffffffffffffffffffffffffffffffffffffffff1673ffffffffffffffffffffffffffffffffffffffff1603610e1c576000600182610cec9190613801565b90506000600c60008381526020019081526020016000209050806040518060a0016040529081600082015481526020016001820160009054906101000a900473ffffffffffffffffffffffffffffffffffffffff1673ffffffffffffffffffffffffffffffffffffffff1673ffffffffffffffffffffffffffffffffffffffff1681526020016002820160009054906101000a900473ffffffffffffffffffffffffffffffffffffffff1673ffffffffffffffffffffffffffffffffffffffff1673ffffffffffffffffffffffffffffffffffffffff168152602001600382015481526020016004820160009054906101000a900460ff161515151581525050848681518110610dff57610dfe613835565b5b6020026020010181905250600185610e179190613801565b945050505b8080610e2790613864565b915050610c60565b508094505050505090565b610e4b610e45611d43565b826122b5565b610e8a576040517f08c379a0000000000000000000000000000000000000000000000000000000008152600401610e81906139b0565b60405180910390fd5b610e9583838361234a565b505050565b610eb5838383604051806020016040528060008152506115b2565b505050565b60606000610ec86007611e04565b905060008060005b83811015610f70573373ffffffffffffffffffffffffffffffffffffffff16600c6000600184610f009190613801565b815260200190815260200160002060010160009054906101000a900473ffffffffffffffffffffffffffffffffffffffff1673ffffffffffffffffffffffffffffffffffffffff1603610f5d57600183610f5a9190613801565b92505b8080610f6890613864565b915050610ed0565b5060008267ffffffffffffffff811115610f8d57610f8c6131f0565b5b604051908082528060200260200182016040528015610fc657816020015b610fb3612d3b565b815260200190600190039081610fab5790505b50905060005b8481101561119b573373ffffffffffffffffffffffffffffffffffffffff16600c6000600184610ffc9190613801565b815260200190815260200160002060010160009054906101000a900473ffffffffffffffffffffffffffffffffffffffff1673ffffffffffffffffffffffffffffffffffffffff16036111885760006001826110589190613801565b90506000600c60008381526020019081526020016000209050806040518060a0016040529081600082015481526020016001820160009054906101000a900473ffffffffffffffffffffffffffffffffffffffff1673ffffffffffffffffffffffffffffffffffffffff1673ffffffffffffffffffffffffffffffffffffffff1681526020016002820160009054906101000a900473ffffffffffffffffffffffffffffffffffffffff1673ffffffffffffffffffffffffffffffffffffffff1673ffffffffffffffffffffffffffffffffffffffff168152602001600382015481526020016004820160009054906101000a900460ff16151515158152505084868151811061116b5761116a613835565b5b60200260200101819052506001856111839190613801565b945050505b808061119390613864565b915050610fcc565b508094505050505090565b6000806111b283612643565b9050600073ffffffffffffffffffffffffffffffffffffffff168173ffffffffffffffffffffffffffffffffffffffff1603611223576040517f08c379a000000000000000000000000000000000000000000000000000000000815260040161121a90613a1c565b60405180910390fd5b80915050919050565b6000600b60009054906101000a900473ffffffffffffffffffffffffffffffffffffffff1673ffffffffffffffffffffffffffffffffffffffff163373ffffffffffffffffffffffffffffffffffffffff16146112be576040517f08c379a00000000000000000000000000000000000000000000000000000000081526004016112b59061391e565b60405180910390fd5b81600a60006101000a81548173ffffffffffffffffffffffffffffffffffffffff021916908373ffffffffffffffffffffffffffffffffffffffff160217905550600a60009054906101000a900473ffffffffffffffffffffffffffffffffffffffff169050919050565b60008073ffffffffffffffffffffffffffffffffffffffff168273ffffffffffffffffffffffffffffffffffffffff1603611399576040517f08c379a000000000000000000000000000000000000000000000000000000000815260040161139090613aae565b60405180910390fd5b600360008373ffffffffffffffffffffffffffffffffffffffff1673ffffffffffffffffffffffffffffffffffffffff168152602001908152602001600020549050919050565b6060600180546113ef90613649565b80601f016020809104026020016040519081016040528092919081815260200182805461141b90613649565b80156114685780601f1061143d57610100808354040283529160200191611468565b820191906000526020600020905b81548152906001019060200180831161144b57829003601f168201915b5050505050905090565b61148461147d611d43565b8383612680565b5050565b600b60009054906101000a900473ffffffffffffffffffffffffffffffffffffffff1673ffffffffffffffffffffffffffffffffffffffff163373ffffffffffffffffffffffffffffffffffffffff1614611518576040517f08c379a000000000000000000000000000000000000000000000000000000000815260040161150f9061391e565b60405180910390fd5b3373ffffffffffffffffffffffffffffffffffffffff16600b60009054906101000a900473ffffffffffffffffffffffffffffffffffffffff1673ffffffffffffffffffffffffffffffffffffffff16146115a8576040517f08c379a000000000000000000000000000000000000000000000000000000000815260040161159f90613b40565b60405180910390fd5b8060098190555050565b6115c36115bd611d43565b836122b5565b611602576040517f08c379a00000000000000000000000000000000000000000000000000000000081526004016115f9906139b0565b60405180910390fd5b61160e848484846127ec565b50505050565b6000600c6000838152602001908152602001600020600301549050803414611671576040517f08c379a000000000000000000000000000000000000000000000000000000000815260040161166890613bd2565b60405180910390fd5b33600c600084815260200190815260200160002060020160006101000a81548173ffffffffffffffffffffffffffffffffffffffff021916908373ffffffffffffffffffffffffffffffffffffffff1602179055506001600c600084815260200190815260200160002060040160006101000a81548160ff0219169083151502179055506000600c600084815260200190815260200160002060010160006101000a81548173ffffffffffffffffffffffffffffffffffffffff021916908373ffffffffffffffffffffffffffffffffffffffff1602179055506117556008611e12565b61176030338461234a565b600b60009054906101000a900473ffffffffffffffffffffffffffffffffffffffff1673ffffffffffffffffffffffffffffffffffffffff166108fc6009549081150290604051600060405180830381858888f193505050501580156117ca573d6000803e3d6000fd5b50600c600083815260200190815260200160002060010160009054906101000a900473ffffffffffffffffffffffffffffffffffffffff1673ffffffffffffffffffffffffffffffffffffffff166108fc6402540be400630495c0c5346118319190613bf2565b61183b9190613c63565b9081150290604051600060405180830381858888f19350505050158015611866573d6000803e3d6000fd5b50600a60009054906101000a900473ffffffffffffffffffffffffffffffffffffffff1673ffffffffffffffffffffffffffffffffffffffff166108fc6402540be400630160203b346118b99190613bf2565b6118c39190613c63565b9081150290604051600060405180830381858888f193505050501580156118ee573d6000803e3d6000fd5b505050565b60606118fe82611cf8565b600060066000848152602001908152602001600020805461191e90613649565b80601f016020809104026020016040519081016040528092919081815260200182805461194a90613649565b80156119975780601f1061196c57610100808354040283529160200191611997565b820191906000526020600020905b81548152906001019060200180831161197a57829003601f168201915b5050505050905060006119a8612848565b905060008151036119bd578192505050611a00565b6000825111156119f25780826040516020016119da929190613cd0565b60405160208183030381529060405292505050611a00565b6119fb8461285f565b925050505b919050565b3373ffffffffffffffffffffffffffffffffffffffff16600c600084815260200190815260200160002060020160009054906101000a900473ffffffffffffffffffffffffffffffffffffffff1673ffffffffffffffffffffffffffffffffffffffff1614611aa9576040517f08c379a0000000000000000000000000000000000000000000000000000000008152600401611aa090613d66565b60405180910390fd5b6009543414611aed576040517f08c379a0000000000000000000000000000000000000000000000000000000008152600401611ae490613df8565b60405180910390fd5b6000600c600084815260200190815260200160002060040160006101000a81548160ff02191690831515021790555080600c60008481526020019081526020016000206003018190555033600c600084815260200190815260200160002060010160006101000a81548173ffffffffffffffffffffffffffffffffffffffff021916908373ffffffffffffffffffffffffffffffffffffffff16021790555030600c600084815260200190815260200160002060020160006101000a81548173ffffffffffffffffffffffffffffffffffffffff021916908373ffffffffffffffffffffffffffffffffffffffff160217905550611beb60086128c7565b611bf633308461234a565b5050565b6000600560008473ffffffffffffffffffffffffffffffffffffffff1673ffffffffffffffffffffffffffffffffffffffff16815260200190815260200160002060008373ffffffffffffffffffffffffffffffffffffffff1673ffffffffffffffffffffffffffffffffffffffff16815260200190815260200160002060009054906101000a900460ff16905092915050565b60007f01ffc9a7000000000000000000000000000000000000000000000000000000007bffffffffffffffffffffffffffffffffffffffffffffffffffffffff1916827bffffffffffffffffffffffffffffffffffffffffffffffffffffffff1916149050919050565b611d0181612923565b611d40576040517f08c379a0000000000000000000000000000000000000000000000000000000008152600401611d3790613a1c565b60405180910390fd5b50565b600033905090565b816004600083815260200190815260200160002060006101000a81548173ffffffffffffffffffffffffffffffffffffffff021916908373ffffffffffffffffffffffffffffffffffffffff160217905550808273ffffffffffffffffffffffffffffffffffffffff16611dbe836111a6565b73ffffffffffffffffffffffffffffffffffffffff167f8c5be1e5ebec7d5bd14f71427d1e84f3dd0314c0f7b2291e5b200ac8c7c3b92560405160405180910390a45050565b600081600001549050919050565b6001816000016000828254019250508190555050565b600073ffffffffffffffffffffffffffffffffffffffff168273ffffffffffffffffffffffffffffffffffffffff1603611e97576040517f08c379a0000000000000000000000000000000000000000000000000000000008152600401611e8e90613e64565b60405180910390fd5b611ea081612923565b15611ee0576040517f08c379a0000000000000000000000000000000000000000000000000000000008152600401611ed790613ed0565b60405180910390fd5b611eee600083836001612964565b611ef781612923565b15611f37576040517f08c379a0000000000000000000000000000000000000000000000000000000008152600401611f2e90613ed0565b60405180910390fd5b6001600360008473ffffffffffffffffffffffffffffffffffffffff1673ffffffffffffffffffffffffffffffffffffffff16815260200190815260200160002060008282540192505081905550816002600083815260200190815260200160002060006101000a81548173ffffffffffffffffffffffffffffffffffffffff021916908373ffffffffffffffffffffffffffffffffffffffff160217905550808273ffffffffffffffffffffffffffffffffffffffff16600073ffffffffffffffffffffffffffffffffffffffff167fddf252ad1be2c89b69c2b068fc378daa952ba7f163c4a11628f55a4df523b3ef60405160405180910390a461204160008383600161296a565b5050565b61204e82612923565b61208d576040517f08c379a000000000000000000000000000000000000000000000000000000000815260040161208490613f62565b60405180910390fd5b806006600084815260200190815260200160002090816120ad919061412e565b505050565b600081116120f5576040517f08c379a00000000000000000000000000000000000000000000000000000000081526004016120ec9061424c565b60405180910390fd5b6009543414612139576040517f08c379a000000000000000000000000000000000000000000000000000000000815260040161213090613df8565b60405180910390fd5b6040518060a001604052808381526020013373ffffffffffffffffffffffffffffffffffffffff1681526020013073ffffffffffffffffffffffffffffffffffffffff16815260200182815260200160001515815250600c60008481526020019081526020016000206000820151816000015560208201518160010160006101000a81548173ffffffffffffffffffffffffffffffffffffffff021916908373ffffffffffffffffffffffffffffffffffffffff16021790555060408201518160020160006101000a81548173ffffffffffffffffffffffffffffffffffffffff021916908373ffffffffffffffffffffffffffffffffffffffff1602179055506060820151816003015560808201518160040160006101000a81548160ff02191690831515021790555090505061227233308461234a565b817fb640004f1d14576d0c209e240cad0410e0d8c0c33a09375861fbadae2588a98d33308460006040516122a9949392919061426c565b60405180910390a25050565b6000806122c1836111a6565b90508073ffffffffffffffffffffffffffffffffffffffff168473ffffffffffffffffffffffffffffffffffffffff16148061230357506123028185611bfa565b5b8061234157508373ffffffffffffffffffffffffffffffffffffffff16612329846106ac565b73ffffffffffffffffffffffffffffffffffffffff16145b91505092915050565b8273ffffffffffffffffffffffffffffffffffffffff1661236a826111a6565b73ffffffffffffffffffffffffffffffffffffffff16146123c0576040517f08c379a00000000000000000000000000000000000000000000000000000000081526004016123b790614323565b60405180910390fd5b600073ffffffffffffffffffffffffffffffffffffffff168273ffffffffffffffffffffffffffffffffffffffff160361242f576040517f08c379a0000000000000000000000000000000000000000000000000000000008152600401612426906143b5565b60405180910390fd5b61243c8383836001612964565b8273ffffffffffffffffffffffffffffffffffffffff1661245c826111a6565b73ffffffffffffffffffffffffffffffffffffffff16146124b2576040517f08c379a00000000000000000000000000000000000000000000000000000000081526004016124a990614323565b60405180910390fd5b6004600082815260200190815260200160002060006101000a81549073ffffffffffffffffffffffffffffffffffffffff02191690556001600360008573ffffffffffffffffffffffffffffffffffffffff1673ffffffffffffffffffffffffffffffffffffffff168152602001908152602001600020600082825403925050819055506001600360008473ffffffffffffffffffffffffffffffffffffffff1673ffffffffffffffffffffffffffffffffffffffff16815260200190815260200160002060008282540192505081905550816002600083815260200190815260200160002060006101000a81548173ffffffffffffffffffffffffffffffffffffffff021916908373ffffffffffffffffffffffffffffffffffffffff160217905550808273ffffffffffffffffffffffffffffffffffffffff168473ffffffffffffffffffffffffffffffffffffffff167fddf252ad1be2c89b69c2b068fc378daa952ba7f163c4a11628f55a4df523b3ef60405160405180910390a461263e838383600161296a565b505050565b60006002600083815260200190815260200160002060009054906101000a900473ffffffffffffffffffffffffffffffffffffffff169050919050565b8173ffffffffffffffffffffffffffffffffffffffff168373ffffffffffffffffffffffffffffffffffffffff16036126ee576040517f08c379a00000000000000000000000000000000000000000000000000000000081526004016126e590614421565b60405180910390fd5b80600560008573ffffffffffffffffffffffffffffffffffffffff1673ffffffffffffffffffffffffffffffffffffffff16815260200190815260200160002060008473ffffffffffffffffffffffffffffffffffffffff1673ffffffffffffffffffffffffffffffffffffffff16815260200190815260200160002060006101000a81548160ff0219169083151502179055508173ffffffffffffffffffffffffffffffffffffffff168373ffffffffffffffffffffffffffffffffffffffff167f17307eab39ab6107e8899845ad3d59bd9653f200f220920489ca2b5937696c31836040516127df9190612e4c565b60405180910390a3505050565b6127f784848461234a565b61280384848484612970565b612842576040517f08c379a0000000000000000000000000000000000000000000000000000000008152600401612839906144b3565b60405180910390fd5b50505050565b606060405180602001604052806000815250905090565b606061286a82611cf8565b6000612874612848565b9050600081511161289457604051806020016040528060008152506128bf565b8061289e84612af7565b6040516020016128af929190613cd0565b6040516020818303038152906040525b915050919050565b60008160000154905060008111612913576040517f08c379a000000000000000000000000000000000000000000000000000000000815260040161290a9061451f565b60405180910390fd5b6001810382600001819055505050565b60008073ffffffffffffffffffffffffffffffffffffffff1661294583612643565b73ffffffffffffffffffffffffffffffffffffffff1614159050919050565b50505050565b50505050565b60006129918473ffffffffffffffffffffffffffffffffffffffff16612bc5565b15612aea578373ffffffffffffffffffffffffffffffffffffffff1663150b7a026129ba611d43565b8786866040518563ffffffff1660e01b81526004016129dc9493929190614594565b6020604051808303816000875af1925050508015612a1857506040513d601f19601f82011682018060405250810190612a1591906145f5565b60015b612a9a573d8060008114612a48576040519150601f19603f3d011682016040523d82523d6000602084013e612a4d565b606091505b506000815103612a92576040517f08c379a0000000000000000000000000000000000000000000000000000000008152600401612a89906144b3565b60405180910390fd5b805181602001fd5b63150b7a0260e01b7bffffffffffffffffffffffffffffffffffffffffffffffffffffffff1916817bffffffffffffffffffffffffffffffffffffffffffffffffffffffff191614915050612aef565b600190505b949350505050565b606060006001612b0684612be8565b01905060008167ffffffffffffffff811115612b2557612b246131f0565b5b6040519080825280601f01601f191660200182016040528015612b575781602001600182028036833780820191505090505b509050600082602001820190505b600115612bba578080600190039150507f3031323334353637383961626364656600000000000000000000000000000000600a86061a8153600a8581612bae57612bad613c34565b5b04945060008503612b65575b819350505050919050565b6000808273ffffffffffffffffffffffffffffffffffffffff163b119050919050565b600080600090507a184f03e93ff9f4daa797ed6e38ed64bf6a1f0100000000000000008310612c46577a184f03e93ff9f4daa797ed6e38ed64bf6a1f0100000000000000008381612c3c57612c3b613c34565b5b0492506040810190505b6d04ee2d6d415b85acef81000000008310612c83576d04ee2d6d415b85acef81000000008381612c7957612c78613c34565b5b0492506020810190505b662386f26fc100008310612cb257662386f26fc100008381612ca857612ca7613c34565b5b0492506010810190505b6305f5e1008310612cdb576305f5e1008381612cd157612cd0613c34565b5b0492506008810190505b6127108310612d00576127108381612cf657612cf5613c34565b5b0492506004810190505b60648310612d235760648381612d1957612d18613c34565b5b0492506002810190505b600a8310612d32576001810190505b80915050919050565b6040518060a0016040528060008152602001600073ffffffffffffffffffffffffffffffffffffffff168152602001600073ffffffffffffffffffffffffffffffffffffffff168152602001600081526020016000151581525090565b6000604051905090565b600080fd5b600080fd5b60007fffffffff0000000000000000000000000000000000000000000000000000000082169050919050565b612de181612dac565b8114612dec57600080fd5b50565b600081359050612dfe81612dd8565b92915050565b600060208284031215612e1a57612e19612da2565b5b6000612e2884828501612def565b91505092915050565b60008115159050919050565b612e4681612e31565b82525050565b6000602082019050612e616000830184612e3d565b92915050565b600081519050919050565b600082825260208201905092915050565b60005b83811015612ea1578082015181840152602081019050612e86565b60008484015250505050565b6000601f19601f8301169050919050565b6000612ec982612e67565b612ed38185612e72565b9350612ee3818560208601612e83565b612eec81612ead565b840191505092915050565b60006020820190508181036000830152612f118184612ebe565b905092915050565b6000819050919050565b612f2c81612f19565b8114612f3757600080fd5b50565b600081359050612f4981612f23565b92915050565b600060208284031215612f6557612f64612da2565b5b6000612f7384828501612f3a565b91505092915050565b600073ffffffffffffffffffffffffffffffffffffffff82169050919050565b6000612fa782612f7c565b9050919050565b612fb781612f9c565b82525050565b6000602082019050612fd26000830184612fae565b92915050565b612fe181612f9c565b8114612fec57600080fd5b50565b600081359050612ffe81612fd8565b92915050565b6000806040838503121561301b5761301a612da2565b5b600061302985828601612fef565b925050602061303a85828601612f3a565b9150509250929050565b600081519050919050565b600082825260208201905092915050565b6000819050602082019050919050565b61307981612f19565b82525050565b600061308a82612f7c565b9050919050565b61309a8161307f565b82525050565b6130a981612e31565b82525050565b60a0820160008201516130c56000850182613070565b5060208201516130d86020850182613091565b5060408201516130eb6040850182613091565b5060608201516130fe6060850182613070565b50608082015161311160808501826130a0565b50505050565b600061312383836130af565b60a08301905092915050565b6000602082019050919050565b600061314782613044565b613151818561304f565b935061315c83613060565b8060005b8381101561318d5781516131748882613117565b975061317f8361312f565b925050600181019050613160565b5085935050505092915050565b600060208201905081810360008301526131b4818461313c565b905092915050565b6131c581612f19565b82525050565b60006020820190506131e060008301846131bc565b92915050565b600080fd5b600080fd5b7f4e487b7100000000000000000000000000000000000000000000000000000000600052604160045260246000fd5b61322882612ead565b810181811067ffffffffffffffff82111715613247576132466131f0565b5b80604052505050565b600061325a612d98565b9050613266828261321f565b919050565b600067ffffffffffffffff821115613286576132856131f0565b5b61328f82612ead565b9050602081019050919050565b82818337600083830152505050565b60006132be6132b98461326b565b613250565b9050828152602081018484840111156132da576132d96131eb565b5b6132e584828561329c565b509392505050565b600082601f830112613302576133016131e6565b5b81356133128482602086016132ab565b91505092915050565b60008060006060848603121561333457613333612da2565b5b600084013567ffffffffffffffff81111561335257613351612da7565b5b61335e868287016132ed565b935050602061336f86828701612f3a565b925050604061338086828701612fef565b9150509250925092565b6000806000606084860312156133a3576133a2612da2565b5b60006133b186828701612fef565b93505060206133c286828701612fef565b92505060406133d386828701612f3a565b9150509250925092565b6000602082840312156133f3576133f2612da2565b5b600061340184828501612fef565b91505092915050565b61341381612e31565b811461341e57600080fd5b50565b6000813590506134308161340a565b92915050565b6000806040838503121561344d5761344c612da2565b5b600061345b85828601612fef565b925050602061346c85828601613421565b9150509250929050565b600067ffffffffffffffff821115613491576134906131f0565b5b61349a82612ead565b9050602081019050919050565b60006134ba6134b584613476565b613250565b9050828152602081018484840111156134d6576134d56131eb565b5b6134e184828561329c565b509392505050565b600082601f8301126134fe576134fd6131e6565b5b813561350e8482602086016134a7565b91505092915050565b6000806000806080858703121561353157613530612da2565b5b600061353f87828801612fef565b945050602061355087828801612fef565b935050604061356187828801612f3a565b925050606085013567ffffffffffffffff81111561358257613581612da7565b5b61358e878288016134e9565b91505092959194509250565b600080604083850312156135b1576135b0612da2565b5b60006135bf85828601612f3a565b92505060206135d085828601612f3a565b9150509250929050565b600080604083850312156135f1576135f0612da2565b5b60006135ff85828601612fef565b925050602061361085828601612fef565b9150509250929050565b7f4e487b7100000000000000000000000000000000000000000000000000000000600052602260045260246000fd5b6000600282049050600182168061366157607f821691505b6020821081036136745761367361361a565b5b50919050565b7f4552433732313a20617070726f76616c20746f2063757272656e74206f776e6560008201527f7200000000000000000000000000000000000000000000000000000000000000602082015250565b60006136d6602183612e72565b91506136e18261367a565b604082019050919050565b60006020820190508181036000830152613705816136c9565b9050919050565b7f4552433732313a20617070726f76652063616c6c6572206973206e6f7420746f60008201527f6b656e206f776e6572206f7220617070726f76656420666f7220616c6c000000602082015250565b6000613768603d83612e72565b91506137738261370c565b604082019050919050565b600060208201905081810360008301526137978161375b565b9050919050565b7f4e487b7100000000000000000000000000000000000000000000000000000000600052601160045260246000fd5b60006137d882612f19565b91506137e383612f19565b92508282039050818111156137fb576137fa61379e565b5b92915050565b600061380c82612f19565b915061381783612f19565b925082820190508082111561382f5761382e61379e565b5b92915050565b7f4e487b7100000000000000000000000000000000000000000000000000000000600052603260045260246000fd5b600061386f82612f19565b91507fffffffffffffffffffffffffffffffffffffffffffffffffffffffffffffffff82036138a1576138a061379e565b5b600182019050919050565b7f6f6e6c79206f776e6572206f6620746865206d61726b6574706c61636520636160008201527f6e206368616e676520746865206c697374696e67207072696365000000000000602082015250565b6000613908603a83612e72565b9150613913826138ac565b604082019050919050565b60006020820190508181036000830152613937816138fb565b9050919050565b7f4552433732313a2063616c6c6572206973206e6f7420746f6b656e206f776e6560008201527f72206f7220617070726f76656400000000000000000000000000000000000000602082015250565b600061399a602d83612e72565b91506139a58261393e565b604082019050919050565b600060208201905081810360008301526139c98161398d565b9050919050565b7f4552433732313a20696e76616c696420746f6b656e2049440000000000000000600082015250565b6000613a06601883612e72565b9150613a11826139d0565b602082019050919050565b60006020820190508181036000830152613a35816139f9565b9050919050565b7f4552433732313a2061646472657373207a65726f206973206e6f74206120766160008201527f6c6964206f776e65720000000000000000000000000000000000000000000000602082015250565b6000613a98602983612e72565b9150613aa382613a3c565b604082019050919050565b60006020820190508181036000830152613ac781613a8b565b9050919050565b7f4f6e6c79206d61726b6574706c616365206f776e65722063616e20757064617460008201527f65206c697374696e672070726963652e00000000000000000000000000000000602082015250565b6000613b2a603083612e72565b9150613b3582613ace565b604082019050919050565b60006020820190508181036000830152613b5981613b1d565b9050919050565b7f506c65617365207375626d6974207468652061736b696e67207072696365206960008201527f6e206f7264657220746f20636f6d706c65746520746865207075726368617365602082015250565b6000613bbc604083612e72565b9150613bc782613b60565b604082019050919050565b60006020820190508181036000830152613beb81613baf565b9050919050565b6000613bfd82612f19565b9150613c0883612f19565b9250828202613c1681612f19565b91508282048414831517613c2d57613c2c61379e565b5b5092915050565b7f4e487b7100000000000000000000000000000000000000000000000000000000600052601260045260246000fd5b6000613c6e82612f19565b9150613c7983612f19565b925082613c8957613c88613c34565b5b828204905092915050565b600081905092915050565b6000613caa82612e67565b613cb48185613c94565b9350613cc4818560208601612e83565b80840191505092915050565b6000613cdc8285613c9f565b9150613ce88284613c9f565b91508190509392505050565b7f4f6e6c79206974656d206f776e65722063616e20706572666f726d207468697360008201527f206f7065726174696f6e00000000000000000000000000000000000000000000602082015250565b6000613d50602a83612e72565b9150613d5b82613cf4565b604082019050919050565b60006020820190508181036000830152613d7f81613d43565b9050919050565b7f5072696365206d75737420626520657175616c20746f206c697374696e67207060008201527f7269636500000000000000000000000000000000000000000000000000000000602082015250565b6000613de2602483612e72565b9150613ded82613d86565b604082019050919050565b60006020820190508181036000830152613e1181613dd5565b9050919050565b7f4552433732313a206d696e7420746f20746865207a65726f2061646472657373600082015250565b6000613e4e602083612e72565b9150613e5982613e18565b602082019050919050565b60006020820190508181036000830152613e7d81613e41565b9050919050565b7f4552433732313a20746f6b656e20616c7265616479206d696e74656400000000600082015250565b6000613eba601c83612e72565b9150613ec582613e84565b602082019050919050565b60006020820190508181036000830152613ee981613ead565b9050919050565b7f45524337323155524953746f726167653a2055524920736574206f66206e6f6e60008201527f6578697374656e7420746f6b656e000000000000000000000000000000000000602082015250565b6000613f4c602e83612e72565b9150613f5782613ef0565b604082019050919050565b60006020820190508181036000830152613f7b81613f3f565b9050919050565b60008190508160005260206000209050919050565b60006020601f8301049050919050565b600082821b905092915050565b600060088302613fe47fffffffffffffffffffffffffffffffffffffffffffffffffffffffffffffffff82613fa7565b613fee8683613fa7565b95508019841693508086168417925050509392505050565b6000819050919050565b600061402b61402661402184612f19565b614006565b612f19565b9050919050565b6000819050919050565b61404583614010565b61405961405182614032565b848454613fb4565b825550505050565b600090565b61406e614061565b61407981848461403c565b505050565b5b8181101561409d57614092600082614066565b60018101905061407f565b5050565b601f8211156140e2576140b381613f82565b6140bc84613f97565b810160208510156140cb578190505b6140df6140d785613f97565b83018261407e565b50505b505050565b600082821c905092915050565b6000614105600019846008026140e7565b1980831691505092915050565b600061411e83836140f4565b9150826002028217905092915050565b61413782612e67565b67ffffffffffffffff8111156141505761414f6131f0565b5b61415a8254613649565b6141658282856140a1565b600060209050601f8311600181146141985760008415614186578287015190505b6141908582614112565b8655506141f8565b601f1984166141a686613f82565b60005b828110156141ce578489015182556001820191506020850194506020810190506141a9565b868310156141eb57848901516141e7601f8916826140f4565b8355505b6001600288020188555050505b505050505050565b7f5072696365206d757374206265206174206c6561737420312077656900000000600082015250565b6000614236601c83612e72565b915061424182614200565b602082019050919050565b6000602082019050818103600083015261426581614229565b9050919050565b60006080820190506142816000830187612fae565b61428e6020830186612fae565b61429b60408301856131bc565b6142a86060830184612e3d565b95945050505050565b7f4552433732313a207472616e736665722066726f6d20696e636f72726563742060008201527f6f776e6572000000000000000000000000000000000000000000000000000000602082015250565b600061430d602583612e72565b9150614318826142b1565b604082019050919050565b6000602082019050818103600083015261433c81614300565b9050919050565b7f4552433732313a207472616e7366657220746f20746865207a65726f2061646460008201527f7265737300000000000000000000000000000000000000000000000000000000602082015250565b600061439f602483612e72565b91506143aa82614343565b604082019050919050565b600060208201905081810360008301526143ce81614392565b9050919050565b7f4552433732313a20617070726f766520746f2063616c6c657200000000000000600082015250565b600061440b601983612e72565b9150614416826143d5565b602082019050919050565b6000602082019050818103600083015261443a816143fe565b9050919050565b7f4552433732313a207472616e7366657220746f206e6f6e20455243373231526560008201527f63656976657220696d706c656d656e7465720000000000000000000000000000602082015250565b600061449d603283612e72565b91506144a882614441565b604082019050919050565b600060208201905081810360008301526144cc81614490565b9050919050565b7f436f756e7465723a2064656372656d656e74206f766572666c6f770000000000600082015250565b6000614509601b83612e72565b9150614514826144d3565b602082019050919050565b60006020820190508181036000830152614538816144fc565b9050919050565b600081519050919050565b600082825260208201905092915050565b60006145668261453f565b614570818561454a565b9350614580818560208601612e83565b61458981612ead565b840191505092915050565b60006080820190506145a96000830187612fae565b6145b66020830186612fae565b6145c360408301856131bc565b81810360608301526145d5818461455b565b905095945050505050565b6000815190506145ef81612dd8565b92915050565b60006020828403121561460b5761460a612da2565b5b6000614619848285016145e0565b9150509291505056fea26469706673582212204269529fb130de535a007eb4f99ac315b5dec3bbce6a17b97ca02ab32e32df3564736f6c63430008110033",
  "linkReferences": {},
  "deployedLinkReferences": {}
}